S01000004350726F6A6563742E73726563FA
S11300000C9431000C9456000C9446000C94460059
S11300100C9446000C9446000C9446000C94460044
S11300200C9446000C9446000C9446000C948201F7
S11300300C9446000C9446000C94FB000C9446006F
S11300400C9446000C9446000C9446000C94460014
S11300500C9446009F01A101A701A301A901AC01D1
S1130060AF0111241FBECFE5D4E0DEBFCDBF10E049
S1130070A0E6B0E0E0EAF7E002C005900D92A837F0
S1130080B107D9F70E94AF000C94CE030C94000082
S113009017B816B88BE886B9089597B1907E97B9CA
S11300A097B18770982B97B9369A08951F920F923B
S11300B00FB60F9211242F933F934F935F936F9337
S11300C07F938F939F93AF93BF93EF93FF938BB7DC
S11300D08F7B8BBF829B0DC08FE493EC0197F1F76C
S11300E000C00000829B13C083E690E00E94D00110
S11300F00EC082990CC08FE493EC0197F1F700C015
S11301000000829904C088E690E00E94D0018BB779
S113011080648BBFFF91EF91BF91AF919F918F91BD
S11301207F916F915F914F913F912F910F900FBEEF
S11301300F901F901895F894D09AD1988A988BB7FD
S113014080648BBF85B7816085BF85B78D7F85BF90
S113015078940895BB9A83B78B6683BF08950E94F1
S11301609B000E94C2010E94AA001CBE0E9448007B
S113017081E00E944D00FFCFDC01E6E7F0E027E8D4
S113018030E011922E173F07E1F74C9141110EC058
S113019090E0E92FF0E0EA58FF4FDB018C91808377
S11301A011968C91882321F181E011C020E030E088
S11301B090E0F901EA58FF4F40839F5F292F30E018
S11301C0FD01E20FF31F40814111F3CFE2CFE92F8C
S11301D0E80FF0E0EA58FF4FDB01A80FB11D2C91A6
S11301E020838F5FFB01E80FF11D20812111EFCFE8
S11301F086E790E008951F920F920FB60F92112494
S11302002F933F934F935F936F937F938F939F931A
S1130210AF93BF93EF93FF93CF93DF93CDB7DEB745
S11302206097DEBFCDBF83EC99E00197F1F700C082
S1130230000064B185B170E0782B80E090E00E940A
S1130240980220E030E040EA50E40E94260324E1D2
S11302503EEA43E251E40E94F7010E946902DC0194
S1130260CB014AE0BE016F5F7F4F0E949903BE013C
S11302706F5F7F4F80E690E00E94BC00FC0101901C
S11302800020E9F7319723E230E0318320830E9494
S1130290D00160960FB6F894DEBF0FBECDBFDF91DC
S11302A0CF91FF91EF91BF91AF919F918F917F91EA
S11302B06F915F914F913F912F910F900FBE0F90CF
S11302C01F901895829B05C083E690E00E94D001A0
S11302D004C088E690E00E94D0012FE986E891E00E
S11302E0215080409040E1F700C00000D89B05C039
S11302F08DE690E00E94D001089582E790E00E948C
S1130300D00108951F920F920FB60F9211242F93CC
S11303103F934F935F936F937F938F939F93AF9389
S1130320BF93EF93FF930E94F50190E0FC01F097D7
S1130330E730F105B0F4E65DFF4F0C949303D898D1
S113034010C0D89A0EC081E00E944D000AC01CBEA5
S113035008C08FE78CBF05C08FEF8CBF02C00E941E
S11303606201FF91EF91BF91AF919F918F917F9126
S11303706F915F914F913F912F910F900FBE0F900E
S11303801F90189582E08BB988E98AB986E880BD08
S113039010BC8CE089B908955D9BFECF8CB908959B
S11303A0CF93DF93EC018881833229F40E94CC013E
S11303B021E030E005C083E20E94CC0120E030E07F
S11303C0FE01E20FF31F8081833249F02F5F3F4F1C
S11303D0C20FD31F0E94CC0189918332D9F78AE0DE
S11303E00E94CC01DF91CF9108958CB108950E94B1
S11303F00B020C94EC020E94E50258F00E94DE020B
S113040040F029F45F3F29F00C94D50251110C946B
S113041020030C94DB020E94FD0268F39923B1F3DC
S1130420552391F3951B550BBB27AA276217730716
S1130430840738F09F5F5F4F220F331F441FAA1FAA
S1130440A9F335D00E2E3AF0E0E832D09150504066
S1130450E695001CCAF72BD0FE2F29D0660F771F14
S1130460881FBB1F261737074807AB07B0E809F0FA
S1130470BB0B802DBF01FF2793585F4F3AF09E3F7F
S1130480510578F00C94D5020C9420035F3FE4F3FB
S1130490983ED4F3869577956795B795F7959F5FC2
S11304A0C9F7880F911D9695879597F90895E1E00E
S11304B0660F771F881FBB1F621773078407BA076D
S11304C020F0621B730B840BBA0BEE1F88F7E095C8
S11304D008950E94050388F09F5798F0B92F992733
S11304E0B751B0F0E1F0660F771F881F991F1AF01B
S11304F0BA95C9F714C0B13091F00E941F03B1E05E
S113050008950C941F03672F782F8827B85F39F05C
S1130510B93FCCF3869577956795B395D9F73EF4B3
S113052090958095709561957F4F8F4F9F4F08955B
S1130530E89409C097FB3EF4909580957095619579
S11305407F4F8F4F9F4F9923A9F0F92F96E9BB272F
S11305509395F695879577956795B795F111F8CFAB
S1130560FAF4BB0F11F460FF1BC06F5F7F4F8F4F16
S11305709F4F16C0882311F096E911C0772321F00C
S11305809EE8872F762F05C0662371F096E8862FA4
S113059070E060E02AF09A95660F771F881FDAF7FB
S11305A0880F9695879597F9089597F99F6780E83E
S11305B070E060E008959FEF80EC089500240A94B1
S11305C01616170618060906089500240A9412162A
S11305D01306140605060895092E0394000C11F45D
S11305E0882352F0BB0F40F4BF2B11F460FF04C00A
S11305F06F5F7F4F8F4F9F4F089557FD9058440F63
S1130600551F59F05F3F71F04795880F97FB991F6D
S113061061F09F3F79F0879508951216130614062A
S1130620551FF2CF4695F1DF08C0161617061806B7
S1130630991FF1CF86957105610508940895E89492
S1130640BB2766277727CB0197F908950E943903C2
S11306500C94EC020E94DE0238F00E94E50220F0C5
S1130660952311F00C94D5020C94DB0211240C9404
S113067020030E94FD0270F3959FC1F3950F50E093
S1130680551F629FF001729FBB27F00DB11D639F40
S1130690AA27F00DB11DAA1F649F6627B00DA11DE6
S11306A0661F829F2227B00DA11D621F739FB00D8C
S11306B0A11D621F839FA00D611D221F749F3327FC
S11306C0A00D611D231F849F600D211D822F762F95
S11306D06A2F11249F5750409AF0F1F088234AF072
S11306E0EE0FFF1FBB1F661F771F881F91505040DE
S11306F0A9F79E3F510580F00C94D5020C94200379
S11307005F3FE4F3983ED4F3869577956795B79564
S1130710F795E7959F5FC1F7FE2B880F911D96957E
S1130720879597F90895EE0FFF1F0590F491E02D3A
S11307300994BB274A3031F4992322F4BDE2909501
S113074081959F4F0C94A503BB27FB015527AA272E
S1130750880F991FAA1FA41710F0A41B839550514A
S1130760B9F7A05DAA3308F0A95DA193009779F7C2
S1130770B111B1931192CB010C94BE03DC01FC01C5
S1130780672F71917723E1F7329704C07C916D93C1
S113079070836291AE17BF07C8F30895F894FFCF32
S11307A054000023425223002342502300234C4E82
S10B07B02300234C4623000042
S9030000FC
